:100000000C945C030C9479030C9479030C9479039D
:100010000C9479030C9479030C9479030C94790370
:100020000C9479030C9479030C94702C0C94422D4D
:100030000C94E9220C9479030C9479030C947903C1
:100040000C9479030C9479030C9479030C94790340
:100050000C9479030C9451230C9479030C94790338
:100060000C9479030C9479030C9479030C94790320
:100070000C9479030C9479030C9479030C94790310
:100080000C9479030C9479030C9479030C94790300
:100090000C9479030C9479030C9479030C947903F0
:1000A0000C9479030C9479030C947903CF03D20355
:1000B000D503D803DB03DE03E103540756076107CA
:1000C00058075A075C075E076007630765076707FD
:1000D000720769076B076D076F0771077407581878
:1000E00058188A188A18C118E1184A1AA81A231928
:1000F000A81AD019D019411AA81AA81AA21ADD19DB
:10010000DD19DD19DD19DD19DD19DD19DD19DD193F
:10011000DD19DD19DD19DD19DD19DD19DD19EE191E
:10012000FB19021A091A131A331B331B451B451BF3
:100130003C1B451B451B451B331B331B411B451BF0
:10014000451B411BB726AD26C5261E27252725277B
:100150001E2725272527E6262527F026FA262527E8
:100160002527252725271E27252725271E2725273D
:10017000D326252725270A270A270A270A270A27F9
:100180000A270A270A270A2720272527B726AA266B
:1001900025272527252725272527252725272527FF
:1001A000252725272027252725271E272527082718
:1001B00008270827082708270827082708270827C7
:1001C0002027AF2DD62DC82ED62DC82E222E452E57
:1001D000C82E9B2EAA2E07634236B79BD8A71A3982
:1001E000685618AEBAAB558C1D3CB7CC5763BD6D85
:1001F000EDFD753EF6177231BF000000803F05A887
:100200004CCDB2D44EB93836A9020C50B99186887B
:10021000083CA6AAAA2ABE000000803F29002B00A5
:100220000041E100E00000001E00140004001D0079
:10023000E20000421F001A0016001B00E0002A0026
:100240002000080007000600E2002C002100150035
:1002500009001900E300E300220017000A0005006E
:100260000000810023000000000000410000800029
:1002700000412D0000002E000000AE0024001C00F4
:100280000B00110000002A00250018000D001000CE
:10029000E3004B0026000C000E003600E6002C00A8
:1002A000270012000F003700E40028002F00130081
:1002B00033003800E6000042300031003400E50031
:1002C000E4000000350028000100010001000000EA
:1002D0003A00280050002202010001003B005200B9
:1002E0005100230201004C003C002F024F002F0060
:1002F000010001003D003002270230000100010032
:100300003E003102350035020000AC000100010062
:10031000000001000000AB0001000100000001002E
:10032000000001003F000100500024020000010015
:100330004000240051001E00010001004100250082
:1003400052001F0037000100420026004F0020002D
:1003500027000100430025022E0231002E0001007B
:1003600044004500010001000100000001000100FF
:100370000100010001000000010001000100010076
:100380000100010001000100F20001000100010074
:100390000100F000F1000100F40001000100010083
:1003A000F3000100F500010001000100010001005F
:1003B0000000010001000100000001000000010038
:1003C0000100010000000100000001000100010027
:1003D0000100010000000100010001000100010016
:1003E000A9000100010001000100AC00AA00B60054
:1003F000010001000100AB00A800010001000100A4
:10040000010001000100010001000100AE00010037
:100410000100000000047F3F1F643214643214782E
:100420003C1E1E140A056801F000B40078005A0052
:1004300000000000000101010101010101010202AF
:100440000202020202020203030303030303030482
:10045000040404040405050505050606060606074A
:10046000070707080808080909090A0A0A0A0B0BFE
:100470000B0C0C0C0D0D0D0E0E0F0F0F101011119B
:10048000111212131314141515161617171818191C
:10049000191A1A1B1C1C1D1D1E1F1F202021222281
:1004A0002324252526272728292A2B2B2C2D2E2FC0
:1004B0002F30313233343536363738393A3B3C3DDC
:1004C0003E3F4041424344464748494A4B4C4D4FCA
:1004D00050515253555657585A5B5C5E5F60626389
:1004E000646667696A6C6D6E707173747678797B17
:1004F0007C7E8081838486888A8B8D8F919294966E
:10050000989A9B9D9FA1A3A5A7A9ABADAFB1B3B589
:10051000B7B9BBBDBFC1C4C6C8CACCCFD1D3D6D86A
:10052000DADCDFE1E4E6E8EBEDF0F2F5F7FAFCFF08
:1005300004033000000016034500720067006F00DE
:1005400044006F007800200045005A0000001603A8
:100550004500720067006F0044006F0078002000C3
:1005600045005A0000000403090409023B0002018F
:1005700000A0FA0904000001030101000921110192
:1005800000012240000705810308000A0904010058
:10059000010300000009211101000122C00007052C
:1005A000820320000A1201100100000008EDFE077E
:1005B0001301000102030105010902A101850209DD
:1005C00001A10005091901290515002501950575E9
:1005D0000181029501750381010501093009311579
:1005E00081257F95027508810609381581257F953B
:1005F0000175088106050C0A38021581257F9501D1
:1006000075088106C0C005010980A1018503160196
:10061000002603001A81002A8300751095018100CD
:10062000C0050C0901A1018504160100269C021ACF
:1006300001002A9C02751095018100C00501090680
:10064000A1018505050719E029E715002501950891
:1006500075018102050819012905950575019102A9
:100660009501750391010507190029EF1500250172
:1006700095F075018102C005010906A10105071960
:10068000E029E7150025019508750181029501759E
:100690000881010508190129059505750191029543
:1006A00001750391010507190029FF150026FF00B8
:1006B000950675088100C00011241FBECFEFDAE057
:1006C000DEBFCDBF12E0A0E0B1E0EEEEF7E602C083
:1006D00005900D92A030B107D9F723E0A0E0B2E079
:1006E00001C01D92A838B207E1F70E9492290C942C
:1006F000F5330C94000080B38C7080BB81B3836FA2
:1007000081BB089584B1807F84B985B1807F85B92C
:100710008AB1837F8AB98BB1837F8BB93E98469823
:100720000895CF93E82F873080F58091060190914E
:100730000701892B09F047C0CE2F64E670E080E402
:100740000E94D9049093070180930601892BD1F46C
:1007500064E670E082E10E94300590930701809387
:100760000601892B79F481E090E001C0880FCA95D9
:10077000EAF764E670E080950E94300590930701E7
:1007800080930601CF910C94850590E0FC0137978A
:10079000E730F105C0F4EA5AFF4F0C946D32209A0D
:1007A000289811C0219A29980EC0229A2A980BC025
:1007B000239A2B9808C0529A5A9805C0539A5B986E
:1007C00002C03E9A4698CF910895CF93873008F0A3
:1007D0003FC08091060190910701892B09F041C02B
:1007E00064E670E080E40E94D9049093070180934E
:1007F0000601892B11F0C0E027C064E670E083E1B8
:100800000E9430059093070180930601892B99F788
:1008100064E670E081E40E94D9049093070180931C
:100820000601892B41F784E690E00E94600597FF5E
:1008300005C09093070180930601DDCFC82FC095B6
:1008400010920701109206010E9485058C2F0AC0A4
:100850009FB18FB1807F869586959370892B809507
:1008600001C080E0CF910895089508950C94350457
:100870000E94F70590E090930701809306010E9483
:1008800082030E947B03AFE0B2E0E1E0F2E08EE0A1
:100890008E0F11921D928E13FCCF8EE00E94DF0B03
:1008A0000C94AC060E94F70590E0909307018093AA
:1008B00006010E9482030E947B03E1E0F2E08EE0E9
:1008C0008E0F11928E13FDCF0895CF92DF92EF928B
:1008D000FF920F931F93CF93DF9380910601909126
:1008E0000701892B91F0809100028F5F80930002B5
:1008F00081110BC00E94F70590E09093070180934F
:100900000601892B11F40E9489059FE0E92E92E0EF
:10091000F92E06E112E0C0E0D12C87E0C82ECC0E03
:100920008C2F0E9491038C2D0E9491038C2F0E948A
:10093000E503F7019081981719F08083D1E001C099
:10094000D0E08C2D0E94E503F8019081981719F0F2
:10095000808381E001C080E0D82BDD2A0E948203E1
:10096000CF5FFFEFEF1AFF0A0F5F1F4FC730A9F6E7
:100970002D2D4EE061E072E08FE092E00E944B0C82
:100980000E94B60681E0DF91CF911F910F91FF90F9
:10099000EF90DF90CF900895E82FF0E0EF5FFD4FEC
:1009A0008081089508951092B9008CE08093B8007A
:1009B0000895EF92FF920F931F93CF93DF93182F19
:1009C000EB011092BC0084EA8093BC000E941B23C0
:1009D0007C019091BC0097FD0EC0CF3F8FEFD807F0
:1009E000C1F30E941B238E199F098C179D0788F362
:1009F0008EEF9FEF2EC09091B900987F983041F014
:100A00009091B900987F903119F08FEF9FEF21C03E
:100A10001093BB0084E88093BC000E941B238C01D0
:100A20009091BC0097FD0CC0CF3F8FEFD807C1F36A
:100A30000E941B23801B910B8C179D0788F3D8CF36
:100A40008091B900887F883111F08034F1F680E020
:100A500090E0DF91CF911F910F91FF90EF9008955B
:100A60000F931F93CF93DF93EB018093BB0084E838
:100A70008093BC000E941B238C019091BC0097FDC9
:100A80000EC0CF3F8FEFD807C1F30E941B23801BFE
:100A9000910B8C179D0788F38EEF9FEF0CC0209170
:100AA000B900287F81E090E0283211F480E090E0E6
:100AB000919581959109DF91CF911F910F910895A3
:100AC0000F931F93CF93DF93EC0184E88093BC00D6
:100AD0000E941B238C019091BC0097FD0EC0CF3F5C
:100AE0008FEFD807C1F30E941B23801B910B8C173B
:100AF0009D0788F38EEF9FEF03C08091BB0090E0CD
:100B0000DF91CF911F910F91089584E98093BC00EC
:100B1000089556985E9825982D9826982E9827988F
:100B20002F988FEF90E090938900809388009093A6
:100B30008B0080938A0090938D0080938C00259A7F
:100B40002D9A2FEF80E792E0215080409040E1F70E
:100B500000C00000269A2E9A2FEF80E792E02150E5
:100B600080409040E1F700C00000279A2F9A2FEFB5
:100B700080E792E0215080409040E1F700C0000003
:100B800025982D982FEF80E792E0215080409040EB
:100B9000E1F700C0000026982E982FEF80E792E042
:100BA000215080409040E1F700C0000027982F9826
:100BB00056985E9825982D9826982E9827982F98C5
:100BC000089589EA8093800089E0809381002498C9
:100BD0002C983F988AB18F7C8AB96E98479A8BB1CE
:100BE00080638BB9769A0E9489050C94340480E264
:100BF00090E0909307018093060180911D0281117E
:100C00000EC00E94D30481E080931D022FEF83ED7C
:100C100090E3215080409040E1F700C0000064E67E
:100C200070E080E40E94D90490930701809306014C
:100C3000892B09F04EC064E670E080E00E94300528
:100C40009093070180930601892B09F042C064E666
:100C500070E080E00E9430059093070180930601C8
:100C6000892BB9F564E670E08FE30E94300590931C
:100C7000070180930601892B61F50E94850564E6D2
:100C800070E080E40E94D9049093070180930601EC
:100C9000892BF9F464E670E08CE00E9430059093B3
:100CA000070180930601892BA1F464E670E080E0DF
:100CB0000E9430059093070180930601892B49F427
:100CC00064E670E08FE30E94300590930701809303
:100CD00006010E94850580910601089581E008952E
:100CE00081E008950C9470061F93CF93DF9300D09A
:100CF00000D01F92CDB7DEB749835A8320915902A5
:100D000089819A81211112C0662349F00E945A20DC
:100D1000182F682F89819A810E94FD1F03C00E94AD
:100D20002D20182F69817A81812F04C00E945A20BA
:100D300069817A810F900F900F900F900F90DF9143
:100D4000CF911F910C946009FC0140815181628117
:100D5000738184810C9474060E948D21811102C0DC
:100D60000E9407220E94A30C0C94E1050C94360407
:100D7000282F2F7041F0822F90E02A3010F44D96EA
:100D800008950697089587E290E0089508950C94D9
:100D9000C6060C94C70608950E94231B0E94CB062A
:100DA0002FEF84E39CE0215080409040E1F700C0A9
:100DB00000000C9477230F931F93CF93DF938C0144
:100DC0000E94A406EC01B8010E947206882309F46F
:100DD0006DC2B801CE010E94220D882309F466C2BB
:100DE000CC3CFCE5DF0741F4F8018281882309F45B
:100DF0005DC20E94500E5AC2CD3C8CE5D80708F067
:100E00001DC1C43C9CE5D90761F4F80182818823A7
:100E100009F44CC20E94DA208272E1F40E940213AB
:100E200045C2C53CECE5DE0708F0C6C0C531FCE5AF
:100E3000DF0798F0C23CFCE5DF0709F48BC008F43B
:100E400091C0F8018281882309F430C20E94DA201F
:100E5000827221F70E94F41229C2C2308CE5D807B1
:100E600008F452C0F8018281882309F459C00E9415
:100E70008D21811102C00E9407220E94A02190E0D2
:100E80009093760380937503FE01E350FC45E231B5
:100E9000F10530F4E35AFF4F809175030C946D32E5
:100EA00080917503816027C0826025C0846023C063
:100EB000806121C080621FC080641DC080681BC02B
:100EC0008460886018C08E7F16C08D7F14C08B7FB1
:100ED00012C08F7E10C08F7D0EC08F7B0CC08F77AD
:100EE0000AC08B7F877F07C087FB222720F991E00C
:100EF000922790FB87F980937503809175030E9478
:100F0000A4210E94231BD2C1C1159CE5D90779F009
:100F1000C130DC45A1F081E080932302809324025C
:100F2000C801DF91CF911F910F910C946E06F801CB
:100F30008281882309F4BAC10E94CC06B7C1F801A6
:100F40008281882309F4B2C18091F8028160809384
:100F5000F802ACC1F8018281882309F4A7C10E947C
:100F60001113A4C1C631DC45B1F60E94DA20282F46
:100F7000F80182814091160150911701882379F080
:100F80002A7A91E009F490E090931E02911102C038
:100F900069E201C065E3CA010E946E220AC0809125
:100FA0001E02811102C069E201C065E3CA010E940C
:100FB00079220E9429217AC1F8018281C83CFCE58E
:100FC000DF0731F4882309F471C10E9478106EC1E3
:100FD000C93C9CE5D907C8F4C63CECE5DE0731F412
:100FE000882309F463C10E944A1060C1C73CDC45F4
:100FF00030F4882309F45AC10E94261057C188236F
:1010000009F454C10E94611051C1CA3C9CE5D90742
:1010100031F4882309F44AC10E94B81047C1CB3C7F
:10102000DC4530F4882309F441C10E9498103EC188
:10103000882309F43BC10E943B0E38C1C43DFCE546
:10104000DF0791F4F8018281882309F42FC10E94FF
:10105000320E893128F00E94320E823208F4FACE24
:1010600089E10E94051322C1C53D8CE5D80708F02F
:1010700068C0F8018281C03DFCE5DF0771F4882378
:1010800009F414C10E94320E893028F00E94320EF9
:101090008E3008F4DFCE89E0E4CFC13D9CE5D9076E
:1010A00040F5CE3CECE5DE0771F4882309F4FEC080
:1010B0000E94320E823028F00E94320E853008F4F1
:1010C000C9CE82E0CECFCF3CDC4528F4882309F49A
:1010D000EDC081E0C6CF882309F4E8C00E94320E3B
:1010E000863028F00E94320E883008F4B3CE86E0B5
:1010F000B8CFC23D9CE5D90771F4882309F4D6C066
:101100000E94320E853128F00E94320E873108F499
:10111000A1CE85E1A6CFC33DDC4570F4882309F458
:10112000C5C00E94320E8F3028F00E94320E8431EA
:1011300008F490CE8FE095CF882309F4B7C088E1FA
:1011400090CFC93DFCE5DF0759F5F801828188237E
:1011500061F0109224020E941B239093220280933C
:10116000210280E20E941618A1C0809124028823E7
:1011700021F080E20E941D1899C080912102909177
:1011800022020E942723883C910598F780E20E9462
:101190001D1888E20E946D1688E20E94A61786C07C
:1011A000CA3D8CE5D80708F060C0C73D9CE5D9076B
:1011B00061F5F8018281882351F0109223020E9488
:1011C0001B239093200280931F0282E0CBCF0E94CA
:1011D000DA2085FF05C081E08093230280932402FA
:1011E0008091230281110FC080911F0290912002F3
:1011F0000E942723883C910530F486E20E946D16F8
:1012000086E20E94A61782E0B5CFC83DECE5DE0776
:1012100010F1F801828181119CCF0E94DA2081FFB8
:1012200005C081E0809323028093240280912402F0
:1012300081119FCF80912102909122020E94272349
:10124000883C910508F095CF87E20E946D1687E2F1
:101250000E94A6178ECFC53DDC4509F05CCEF80193
:101260008281882319F183E2FCCECD3D8CE5D8073D
:1012700041F4F80182818823C9F082E00E94332A78
:1012800015C0CE3D9CE5D90739F4F8018281882349
:1012900069F00E9407220AC0CC3DDC4509F03BCE34
:1012A000F8018281882311F080E0E8CF80E0DF91AF
:1012B000CF911F910F91089580E090E008950895D7
:1012C00096E0799FF001112494E5899FE00DF11DCE
:1012D0001124E60FF11DEE0FFF1FE45EFD4F859117
:1012E00094910895880F991FFC01EC5EFB4F859146
:1012F00094910895CF93DF930E9460090E943F0B61
:10130000EC01811520E59207F0F5811530E4930793
:1013100008F029C1883E910500F5803E910508F04E
:10132000AAC1883A910570F4853A910508F0A4C0E5
:101330008130910509F49FC108F450C1049708F069
:101340009AC14CC18F3B910508F4A1C0803C910526
:1013500008F444C1805C9109F9C0811540E294070A
:1013600058F4C11581E0D80708F085C1C03FD10508
:1013700008F434C1D0657FC1811520E3920708F0DD
:10138000E9C09F70E3C0811535E5930708F044C0BC
:10139000811544E5940708F0FDC0C11582E5D80722
:1013A00008F5C11521E5D20708F0E0C08C2F837045
:1013B00021E030E002C0220F331F8A95E2F73C683B
:1013C000CE0174E0969587957A95E1F78370382B76
:1013D000CF70C695C69540E2C49FE0011124C22B90
:1013E000D32B49C12C2F26952695CE0183709927A2
:1013F000C115D34508F0BFC040E2249F90011124DD
:10140000C1E0D0E002C0CC0FDD1F8A95E2F72C2BA3
:101410003D2BE901DC682FC181154AE59407A0F452
:10142000C11589E5D80708F0C4C0C11526E5D20763
:1014300008F4B5C0C11538E5D30708F4CFC0DC2FD8
:10144000CC27C06FD06A17C181159B4508F4C6C070
:10145000C1158CE5D80708F4BEC0CE0190568115A1
:10146000904208F0BBC08D2F8F710E94BC0BDD270E
:10147000D0628F71D82BFFC0853A910509F4B1C0B5
:10148000863A910509F0B0C0C2E8D0E4F4C0883AC9
:10149000910509F4ACC0893A910509F4ABC08A3AC8
:1014A000910509F4AAC08B3A910509F4A9C08C3AB8
:1014B000910509F4A8C08B3B910509F4A7C08C3BAA
:1014C000910509F4A6C08D3A910509F4A5C0803BA9
:1014D000910509F4A4C08E3A910509F4A3C08F3A8E
:1014E000910509F4A2C0813B910509F4A1C0823B9A
:1014F000910509F4A0C0833B910509F49FC0843B8A
:10150000910509F49EC0853B910509F49DC0863B79
:10151000910509F49CC0873B910509F49BC0883B69
:10152000910509F49AC0893B910509F499C08D3B56
:10153000910509F498C08E3B910509F497C08A3B48
:10154000910509F496C0C0E0D4E495C00E947209E8
:10155000EC0191C09927D3FF03C0EC01D86C8BC07C
:10156000EC01D06C88C0DF70D06A85C0DC2FCC273E
:10157000C16FD06A80C040E2249F90011124C1E075
:10158000D0E002C0CC0FDD1F8A95E2F7C22BD32B2F
:10159000DA6871C0D82FCC27C46FD06A6CC08C2F8A
:1015A0000E94BC0B8F71C82FD0E0DC2FCC27D062FB
:1015B00062C08C2F8F700E94BC0B94E0D695C795AB
:1015C0009A95E1F7CF70D0E0DC2FCC27D06A8F70EE
:1015D000806EC82B50C0DD27D0664DC0C0E0D0E083
:1015E0004AC0C1E8D0E447C0C3E8D0E444C0C2EE7A
:1015F000D4E441C0C9EED4E43EC0CAEED4E43BC05A
:10160000C5EBD4E438C0C6EBD4E435C0C3EBD4E4B6
:1016100032C0C4EBD4E42FC0C7EBD4E42CC0CCEC74
:10162000D4E429C0CDECD4E426C0C3E8D5E423C07B
:10163000CAE8D5E420C0C2E9D5E41DC0C4E9D5E4B8
:101640001AC0C1E2D6E417C0C3E2D6E414C0C4E2B3
:10165000D6E411C0C5E2D6E40EC0C6E2D6E40BC0A3
:10166000C7E2D6E408C0CFE6D4E405C0C0E7D4E4BE
:1016700002C0CAE2D6E4CE01DF91CF91089582384C
:10168000910549F1B0F48133910509F458C048F44B
:101690008932910509F44EC08A32910509F454C08B
:1016A00008958533910509F440C08933910599F077
:1016B0000895833E910529F138F4803E910591F01B
:1016C000823E9105A1F00895863E9105F9F0873E8E
:1016D000910531F108952091750320FD3AC021FD57
:1016E00038C008958091750380FD35C032C0809167
:1016F000750382FF32C08091750384FD30C083EE94
:1017000039C08091750382FD28C0F5CF80917503A3
:1017100083FF27C08091750384FD21C087EE2AC016
:101720008091750383FD1DC0F5CF8091750385FD04
:101730001AC01BC08091750385FD17C014C080912D
:10174000750386FD14C015C08091750386FD11C018
:101750000EC080EE0FC089E30DC082EE0BC080E0AA
:1017600009C086EE07C089E205C085E303C08AE2AE
:1017700001C081E390E008959091750392FF0DC040
:10178000282F2871283019F4877F846006C0282FFD
:101790002471243011F48B7F886093FF0DC0282FB3
:1017A0002871283119F4877E846106C0282F24719E
:1017B000243111F48B7E886194FD877E0895CF9348
:1017C000C82F90E00E9473328093260290932702E4
:1017D000282FFC019BEF8E2F821B8C1710F4919306
:1017E000FACFCF9108950F931F93CF93DF93109269
:1017F000250250912602E52FF091270240E0A62F06
:10180000B0E07BEFCAEFD0E09E2F951B9817D0F485
:1018100090819B3FA9F0292F30E0691728F08D01B6
:10182000021B130B980106C08E01021B130B9801BB
:101830002A0F3B1F2530310514F0708301C041E0B1
:101840003196E2CF40932502DF91CF911F910F9106
:101850000895CF93DF935091260230912502DB014A
:10186000E52FF09127026E2F651B641778F47C91A9
:10187000EC016991CE01C081CB3F29F4761719F0B4
:1018800020836C9331E031961196EDCF3093250291
:10189000DF91CF910895DF92EF92FF920F931F9304
:1018A000CF93DF9300D0CDB7DEB78C017B01D22E72
:1018B0004A830E941B236AEF70E00E944532282F62
:1018C000809125024A818823D9F0622F842F2983B1
:1018D0000E94F30B29814A81DD2069F0B701C8011C
:1018E0000F900F90DF91CF911F910F91FF90EF908C
:1018F000DF900C94290C80912502882379F302C093
:10190000D110ECCF0F900F90DF91CF911F910F91DD
:10191000FF90EF90DF900895CF93DF93813020E820
:10192000920768F0FB012281222349F0EC010E941A
:10193000B90CCE019F770E94050D0E94EE0C81E04C
:10194000DF91CF9108958CE090E00E94AD3390E05C
:10195000A0E0B0E080932A0390932B03A0932C0384
:10196000B0932D03089560912A038CE090E00C94CD
:10197000C1330E94DA20809328020E94ED208091DA
:101980002A03813071F048F08230D9F08430F9F4C4
:1019900086EE0E940E1888E118C082EE0E946D1635
:1019A00016C080EE0E946D1681EE0E946D1688E1D1
:1019B0000E940E1881EE0E94A61780EE0E94A617C4
:1019C00006C082EE0E946D1687E50E940E188FE316
:1019D0009CE90197F1F700C00000089580912A0367
:1019E000813039F040F0823031F0843051F488E2B7
:1019F00006C08CE204C082EE0E94A61702C00E94BC
:101A00000E18809128020C94EA200F931F93CF9315
:101A1000DF938C01CCE0D0E0C8010C2E02C096957B
:101A200087950A94E2F78F700E94B8060E940E18FC
:101A30002497CC3F8FEFD80779F7DF91CF911F9193
:101A40000F9108950F931F93CF93DF93EC018B01B8
:101A5000FB018281882319F1C33EFCE5DF07C1F059
:101A600050F4C13EECE5DE0781F0C23EFCE5DF0745
:101A7000B1F481E010C0C43E8CE5D80759F0C53EF2
:101A8000ECE5DE0761F484E006C010922A0305C08D
:101A900082E001C083E080932A030E94B30CB80166
:101AA000CE01DF91CF911F910F910C948C0C089572
:101AB000EF92FF920F931F93CF93DF93E901662379
:101AC00009F44BC0242F30E0EFEFF0E0E61BF10902
:101AD000B901E69F9001E79F300DF69F300D11246C
:101AE000232F8B01031B11095CE3E52EF12CB701B9
:101AF0000E944532FB01BC01069FC001079F900D6B
:101B0000169F900D1124B7010E944532E230F10575
:101B1000B1F040F4309779F0319711F5832F242FED
:101B2000461B21C0E430F105A1F068F03597C1F4FF
:101B3000842F861B18C0832F262F230F14C0862FB7
:101B4000830FE42F03C0E42FE61B842F432F2E2F97
:101B50000AC0842F462F430F06C0842F242F03C0B2
:101B600080E020E040E0E42FF0E0E05DFB4F4491B6
:101B7000E22FF0E0E05DFB4F9491E82FF0E0E05DB4
:101B8000FB4FE49149839883EA83DF91CF911F91C2
:101B90000F91FF90EF90089580912E03282F2695A6
:101BA0002F7330E02115310519F48178826005C06A
:101BB0002532310524F08178886480932E0330919A
:101BC0002E03432F441F4427441F20912F03522FDD
:101BD000550F852F842B27FB992790F9893641E0F3
:101BE00094077CF068E671E00E94593280FB37F977
:101BF00030932E0386952078822B90FB87F9809373
:101C00002F03089588E090E00C94B533CF93DF93D1
:101C100000D000D0CDB7DEB7AB01BC0149835A83F9
:101C20006B837C830E94CC0D49815A816B817C81BE
:101C300088E090E00F900F900F900F90DF91CF9180
:101C40000C94D333EEE2F3E083E0808310922F0311
:101C50008FEF82838383148260817181828193817B
:101C60000C94060E80912E0380FF03C086958F731F
:101C7000089580E008958091320390E001968430C9
:101C8000910514F083E090E08093320360912E037D
:101C900070912F0380913003909131030C94060EC4
:101CA0008091320390E0019797FF02C080E090E0BE
:101CB0008430910514F083E090E0809332036091CA
:101CC0002E0370912F0380913003909131030C9477
:101CD000060E80912C0224E0829FC00111248D5CAD
:101CE0009C4F60910A0170E020912E0320FD0DC0F1
:101CF00020E030E0F901ED5CFC4F1182108212828D
:101D00002C5F3F4F2C333105A9F70C94731490913D
:101D10002E0390FF0FC020E030E0F901ED5CFC4F96
:101D20008183608342832C5F3F4F2C333105A9F7B9
:101D30000C94690E0895CF93DF9300D000D0CDB7F7
:101D4000DEB720912E0320FF0AC09E012F5F3F4F78
:101D50000E94580D4B8169818A810E94870E0F90E5
:101D60000F900F900F90DF91CF910895CF93DF9355
:101D7000EC016C8170E080E090E00E94463020E051
:101D800030E04FE753E40E94692F2BED3FE049E438
:101D900050E40E946F310E94DC310E94E32F2BE45B
:101DA0003AE34EE25FE30E94FC2E20EF3BEF48ED6A
:101DB00052E40E946F310E941530462FEEE2F3E0AC
:101DC0008081881F8827881F90912F03292F220F39
:101DD00097FB992790F96281822B0E949B0E2C81A0
:101DE00030E02F5F3F4F2C83DF91CF910895CF9349
:101DF000DF93EC01EEE2F3E0438162818C819D810F
:101E00000E949B0E8C819D81019668E671E00E9484
:101E100059329D838C83DF91CF9108950F931F9347
:101E2000CF93DF9300D000D0CDB7DEB78C01809187
:101E3000290281110CC09E012F5F3F4F4FEF6FEFC2
:101E400080E090E00E94580D8A8180932902F80179
:101E50008481813051F028F0823061F44091290270
:101E60000AC08091290240E007C06091290240E049
:101E700080E003C040E080E060E00E94870EF8014F
:101E8000248130E0C901019663E070E00E9459327C
:101E900084830F900F900F900F90DF91CF911F913F
:101EA0000F9108955F926F927F928F929F92AF925F
:101EB000BF92CF92DF92EF92FF920F931F93CF9337
:101EC000DF9300D000D0CDB7DEB78C01E62EF42E24
:101ED000522E80912E0380FF8BC0E82FE695EF7382
:101EE000AE2FB0E0A053BE4F9C9190933402282FA8
:101EF0002E77223061F49E012F5F3F4FC8010E9470
:101F0000580D4B8169818A810E94870E51C09230A1
:101F100019F4F09031034CC0963069F4881F88277B
:101F2000881F90912F03292F220F022F082B97FB38
:101F3000112710F93DC0993089F39931C9F5E9515C
:101F4000E0FD02C021E001C02FEFE695F0E0EE0FCA
:101F5000FF1FEA5DFB4F859194916FE070E00E9456
:101F6000453226034001279F900C1124580188E92F
:101F7000A81A8EEFB80A93E3C92E93E0D92E28E66B
:101F8000622E77247394C501B3010E9445329601F5
:101F90004F2D6E2D0E94580DA80CB91C84E0C80E60
:101FA000D11C8FE6C81683E0D80669F70E94690E37
:101FB00080912E0300FB87F980932E03902F969536
:101FC00080912F038078892B10FB87F980932F0352
:101FD000E0923003F0923103552051F060912E03CE
:101FE00070912F0380913003909131030E94060E6F
:101FF0000F900F900F900F90DF91CF911F910F9145
:10200000FF90EF90DF90CF90BF90AF909F908F9018
:102010007F906F905F900895282FEEE2F3E090811B
:10202000991F9927991F30912F03832F880F482FCD
:10203000492B37FB552750F9CA010C9668E671E029
:102040000E945932438162810C94520F81E00C94BA
:102050000C10282F90912E03991F9927991F3091CA
:102060002F03832F880F482F492B37FB552750F913
:10207000CA014C3051051CF4845A9E4F01C00C9784
:1020800068E671E00E94593240913103609130035B
:102090000C94520F81E00C942910EEE2F3E03081B1
:1020A000331F3327331F90912F03592F550F97FB61
:1020B000992790F9282F43816FEF852F832B0C945C
:1020C000520F81E00C944D10EEE2F3E03081331FAB
:1020D0003327331F90912F03592F550F97FB9927C3
:1020E00090F9282F438160E0852F832B0C94520FA9
:1020F00081E00C94641040913103242F30E0243FA0
:10210000310514F4445F01C04FEF30912E03331FAB
:102110003327331F90912F03592F550F97FB992782
:1021200090F9282F60913003852F832B0C94520F48
:1021300081E00C947B1040913103242F30E02C304F
:10214000310514F04C5001C040E030912E03331F94
:102150003327331F90912F03592F550F97FB992742
:1021600090F9282F60913003852F832B0C94520F08
:1021700081E00C949B1020E00C94520FCF92DF92E0
:10218000EF92FF920F931F93CF93DF93EC0183E3C2
:10219000E82E83E0F82E00E010E098E6C92EDD245A
:1021A000D3948C819D81800F911FB6010E9459327A
:1021B000970140913103609130030E94580D085EF1
:1021C0001F4F84E0E80EF11C083681E0180749F73C
:1021D0000E94690E8A812C813D8180FF06C0C90161
:1021E0000196B8010E94593205C0121613062CF050
:1021F00087E691E09D838C8304C0215031093D83A3
:102200002C83DF91CF911F910F91FF90EF90DF9082
:10221000CF900895AF92BF92CF92DF92EF92FF924C
:102220000F931F93CF93DF93FC01828180FF03C044
:10223000BB24BA9402C0BB24B39423E3E22E23E070
:10224000F22E05E313E0C0E0D0E0F80131971082F0
:10225000F7011082F801108294E0C92ED12CA12C34
:1022600080912B028A0D87FD815F082E000C990B4F
:10227000C817D907E9F4809131038C9DA0018D9D89
:10228000500D1124559547955595479580912E03EE
:10229000881F8827881F90912F03592F550F97FB70
:1022A000992790F9970160913003852B0E94580D72
:1022B000AB0CF1E0CF1AD10899F6219684E0E80E34
:1022C000F11C0C5F1F4FCF30D10509F0BECF0E942B
:1022D000690E80912B0291E0B91206C0811102C0F3
:1022E0008EE007C0815005C090E00196BE010E94BB
:1022F000593280932B02DF91CF911F910F91FF9064
:10230000EF90DF90CF90BF90AF9008950F931F9301
:10231000CF93DF9380E090E0FC01ED5CFC4F1182F5
:102320001082128204968C339105B1F7C0E0D0E0A0
:102330000FE010E0CE01B8010E945932FC018091FB
:102340002A02082E000C990BEE0FFF1FEE0FFF1F45
:10235000C817D907FCF080910901082E000C990BD1
:102360008C179D07BCF09F012D5C3C4F80912E0384
:10237000881F8827881F90912F03592F550F97FB8F
:10238000992790F94091310360913003852B0E9489
:10239000580D05C0ED5CFC4F11821082128221960F
:1023A000CF30D10539F60E94690E809108019091D5
:1023B0002A02980F90932A0220910901280F209356
:1023C0000901121614F49E301CF0819580930801C7
:1023D000DF91CF911F910F910895EF92FF920F938C
:1023E0001F93CF93DF93EC012C813D812F5F3F4FF3
:1023F000217033273D832C8383E3E82E83E0F82E7E
:1024000010E008E7812F8695EC81FD81E80FF11D32
:10241000CF0181709927970140913103609130037A
:10242000FC010E9FC0010F9F900D11240E94580DBA
:102430001F5FF4E0EF0EF11C1F3021F7DF91CF9109
:102440001F910F91FF90EF900C94690EEF92FF9205
:102450000F931F93CF93DF937C01C3E3D3E000E09E
:1024600010E0F701848130912E0390912F03073003
:1024700011051CF4882381F002C081110DC0832F47
:10248000881F8827881F592F550F97FB992790F988
:102490009E01409131030BC0832F881F8827881F1E
:1024A000592F550F97FB992790F99E0140E06091B5
:1024B0003003852B0E94580D0F5F1F4F24960F305D
:1024C000110579F60E94690EF701848190E001966A
:1024D000817099278483DF91CF911F910F91FF9095
:1024E000EF900895EEE2F3E080818E7F808360813B
:1024F0007181828193810E94060E109235022FEF26
:1025000080E792E0215080409040E1F700C0000059
:102510000C94690E60912E0366956F7370E04BE02A
:1025200050E08BE091E00E94A033892B19F481E008
:10253000809335020E941B2390932E0280932D02DC
:10254000089590912E0390FF42C09178811102C0AE
:10255000926007C0853210F0986403C08F73880FB3
:10256000982B90932E03662351F060912E03709167
:102570002F0380913003909131030E94060E6091E9
:102580002E0366956F7370E04BE050E08BE091E0B6
:102590000E94A033892B19F01092350202C00E94CC
:1025A0008A1281E08093300280912E03881F882751
:1025B000881F90912F03292F220F97FB992790F9BD
:1025C0004091310360913003822B0C94BB1008952D
:1025D000682F90912E0396959F7381E0890F853225
:1025E00008F081E00C94A11281E00C94E812682FAD
:1025F00090912E0396959F738FEF890F09F484E2D3
:102600000C94A11281E00C94F71261E00C94A112D9
:10261000EEE2F3E080818160808386958F730C9475
:10262000051380912E0380FD0C9472120C940813F4
:1026300060E00C94A11280913302811134C080912A
:10264000F80281608093F8020E948D21811104C0FC
:102650000E9407220E94220E0E94020E60932E0307
:1026600070932F0380933003909331036E7761F45E
:102670000E94220E0E94020E60932E0370932F037D
:1026800080933003909331030E94CC0D1092350259
:1026900080912E0380FF04C086958F730E941813CB
:1026A00081E08093330208950F931F93CF93DF93BC
:1026B00080913502882309F48DC080913402E09125
:1026C0002E03E695EF73E81BE0932F02823049F466
:1026D000F0E0EE5DFB4FE491CE2FD0E006EB1EE084
:1026E00049C0863049F4F0E0E15EFB4FE491CE2F23
:1026F000D0E007EF1EE03EC0893051F4E695F0E0EF
:10270000E45EFB4FE491CE2FD0E00EEB10E132C03F
:102710008F3051F4E695F0E0E75EFB4FE491CE2F69
:10272000D0E00AE011E126C0853149F4F0E0EA5E2C
:10273000FB4FE491CE2FD0E006E811E11BC08831B9
:1027400081F0833239F4E4E1F4E0C591D4910EE0F4
:102750001FE010C0843251F4C4EFD1E006E212E170
:1027600009C0C8EED3E00DEE11E104C0C0EDD7E022
:1027700007E51DE080913002882389F01092300235
:102780000E941B239E0120953095820F931F9093EA
:102790002E0280932D02109232021092310280910B
:1027A0002D0290912E020E9427238C179D0790F0F6
:1027B000E0912D02F0912E02CE0FDF1FD0932E025A
:1027C000C0932D028DE292E0F801DF91CF911F912D
:1027D0000F910994DF91CF911F910F910895882354
:1027E00019F05198599A02C0519A59985098589A8C
:1027F00095E09A95F1F70000509A589895E09A95CF
:10280000F1F70000882311F0519A599885E08A95D4
:10281000F1F7000008958BB18C7F8BB95098589ACE
:102820005198599A85E08A95F1F7000008958AB188
:102830008C7F8AB985E08A95F1F70000519A599802
:1028400085E08A95F1F70000509A589885E08A95BE
:10285000F1F7000008955098589A85E08A95F1F7AD
:1028600000005198599A85E08A95F1F70000089583
:10287000CF93DF93D82FC8E08D2F80780E94EF137D
:10288000DD0FC150C9F780E00E94EF1385E08A9503
:10289000F1F7000085E08A95F1F7000080E0DF9114
:1028A000CF9108952BB1342F309523233BB1432B87
:1028B0003FB7F894FC01680F791FE617F70789F016
:1028C000819198E04BB9000000C087FF2BB9880FB9
:1028D000000000C000C000C02BB900C09A9591F75D
:1028E000ECCF3FBF0895AF92BF92CF92DF92EF92AD
:1028F000FF920F931F93CF93DF938C01EB01CFB621
:10290000D090BC00F8948091BC008B7F8093BC0079
:102910000E940B140E94171484E80E943814CC0FF4
:10292000DD1FCC0FDD1F78015801AC0EBD1EEA146F
:10293000FB0431F0F70181917F010E943814F7CF39
:102940000E942B14CFBED092BC00579A40E8BE0123
:10295000C801DF91CF911F910F91FF90EF90DF9011
:10296000CF90BF90AF900C94521490933B02809301
:102970003A020895E0913A02F0913B02309721F03B
:102980000190F081E02D099480E00895E0913A02F1
:10299000F0913B02309799F020912701222359F0C2
:1029A0002091750327FF07C0DC012C9111962C9311
:1029B000119725E02C930280F381E02D099408956E
:1029C000E0913A02F0913B02309739F022E0DC01CD
:1029D0002C930480F581E02D09940895209138020C
:1029E000309139028217930771F0909339028093E6
:1029F0003802E0913A02F0913B02309721F00680D4
:102A0000F781E02D09940895209136023091370224
:102A10008217930771F09093370280933602E0910A
:102A20003A02F0913B02309721F00084F185E02DCD
:102A30000994089585B7806885BF85B7806885BF8C
:102A40000895089508950C94221508950C94251561
:102A50000E941A150E9421150C94231581E00895F7
:102A60000E9412230E9438040E94A9230E941B1373
:102A70000C942615CF92DF92EF92FF920F931F9343
:102A8000CF93DF93CDB7DEB72B970FB6F894DEBFA9
:102A90000FBECDBF0E9465040E942E15811111C08A
:102AA0008FEF89838A831B820E941B238160782F8A
:102AB0009D838C8349815A816B818D810E941E1672
:102AC00056C08DE3C82E82E0D82E00E010E0E02E44
:102AD000802F0E94CC04F60141916F01F42EF8265C
:102AE00031F40F5F1F4F0E30110589F7D9CF909148
:102AF000F80291FF04C08B870E94D2048B8520E0EE
:102B000030E04F2D50E0922FBA01022E02C0759591
:102B100067950A94E2F760FF24C02E83EF8221E0DC
:102B200030E0690102C0CC0CDD1C9A95E2F790E020
:102B30008C219D21892B09F420E028870E941B23EA
:102B40008160782F9A8789874E815F8168858A8521
:102B50000E941E16F801E35CFD4F8081C826C082EA
:102B600006C02F5F3F4F2630310569F6BACF0E946D
:102B70003C2510913C020E94BA141817A1F00E9443
:102B8000BA1480933C022B960FB6F894DEBF0FBEAA
:102B9000CDBFDF91CF911F910F91FF90EF90DF900C
:102BA000CF900C94C9062B960FB6F894DEBF0FBEDB
:102BB000CDBFDF91CF911F910F91FF90EF90DF90EC
:102BC000CF900895DC0111962C9111978C91682F6C
:102BD00070E041E050E001C0440F8A95EAF7129698
:102BE0008C91129730E0882329F080915B02882332
:102BF000E9F006C0F901E55BFD4F90819423B1F047
:102C000086E0829FF001839FF00D1124E60FF71FED
:102C1000EE0FFF1FE85DFE4F808191818D939C93A5
:102C2000F901E55BFD4F8081482B06C0F901E55BAA
:102C3000FD4F40958081482340830895CF93DF93D3
:102C4000CDB7DEB72B970FB6F894DEBF0FBECDBF62
:102C5000942F4F83252F588769877A878B874A85DA
:102C60005B85452B21F02F3F09F59F3FF9F4DE01ED
:102C7000119686E0FD0111928A95E9F785E0FE0143
:102C8000379601900D928A95E1F749815A816B81BF
:102C90007C818D819E810E94CD1D2B960FB6F8946C
:102CA000DEBF0FBECDBFDF91CF910895CE01079655
:102CB0000E94E215DCCFFC01808191810E949B2063
:102CC00092959F70963041F480915B0291E0892744
:102CD00080935B0290935A020895CF93DF931F92E3
:102CE000CDB7DEB7882309F42DC1682F8238C1F42F
:102CF0000E94BA1481FD26C169E38091160190916A
:102D000017010E946E220E9429212FEF81EE94E08C
:102D1000215080409040E1F700C0000069E319C0F5
:102D2000833811F50E94BA1480FD0CC163E58091CF
:102D30001601909117010E946E220E9429212FEF07
:102D400081EE94E0215080409040E1F700C0000007
:102D500063E580911601909117010E9479220F90EE
:102D6000DF91CF910C9429218438C1F40E94BA14C8
:102D700082FDE8C067E480911601909117010E94DE
:102D80006E220E9429212FEF81EE94E02150804095
:102D90009040E1F700C0000067E4DBCF8CEF860FC6
:102DA000813A70F4862F69830E94382769818111E6
:102DB000C9C080911601909117010E946E22CFCF59
:102DC00080E2860F883048F4677081E001C0880F88
:102DD0006A95EAF70E94DD20C2CF8BE5860F83302B
:102DE00088F4653A29F0663A31F083E890E005C04E
:102DF00081E890E002C082E890E00F90DF91CF91EF
:102E00000C94EE1488E5860F873108F091C0683A7B
:102E100009F445C0693A09F445C06A3A09F445C065
:102E20006B3A09F445C06C3A09F445C06B3B09F4B0
:102E300045C06C3B09F445C06D3A09F445C0603BA0
:102E400009F445C06E3A09F445C06F3A09F445C02B
:102E5000613B09F445C0623B09F445C0633B09F49A
:102E600045C0643B09F445C0653B09F445C0663B79
:102E700009F445C0673B09F445C0683B09F445C007
:102E8000693B09F445C06D3B09F445C06E3B09F44C
:102E900045C06A3B09F445C080E090E044C082EE42
:102EA00090E041C089EE90E03EC08AEE90E03BC0E9
:102EB00085EB90E038C086EB90E035C083EB90E086
:102EC00032C084EB90E02FC087EB90E02CC08CECFC
:102ED00090E029C08DEC90E026C083E891E023C00B
:102EE0008AE891E020C082E991E01DC084E991E088
:102EF0001AC081E292E017C083E292E014C084E23B
:102F000092E011C085E292E00EC086E292E00BC032
:102F100087E292E008C08FE690E005C080E790E08D
:102F200002C08AE292E00F90DF91CF910C940415D9
:102F3000603F40F0862F0E9444240F90DF91CF9194
:102F40000C9431250F90DF91CF910895882309F4D7
:102F500064C0823879F40E94BA1481FF5EC069E3CC
:102F600080911601909117010E946E220E942921E2
:102F700069E310C08338B1F40E94BA1480FF4DC0D9
:102F800063E580911601909117010E946E220E94C4
:102F9000292163E580911601909117010E94792201
:102FA0000C942921843879F40E94BA1482FF35C028
:102FB00067E480911601909117010E946E220E9491
:102FC000292167E4E7CF9CEF980F913A10F4682F1E
:102FD000E1CF90E2980F983050F4877091E001C0F3
:102FE000990F8A95EAF7892F0E94E320D9CF9BE5B4
:102FF000980F933020F480E090E00C94EE1498E564
:10300000980F973120F480E090E00C940415803FF5
:1030100020F00E94AC240C9431250895CF93C82F42
:103020000E946D168C2FCF910C94A617882321F047
:103030000E94DD200C9429210895882321F00E940C
:10304000E3200C94292108958F929F92AF92BF9212
:10305000DF92EF92FF920F931F93CF93DF937C0148
:10306000D62FC72FFC01058102950F701281111117
:103070000E94FD200E94D320882379F0112369F05B
:1030800080E28D0F883048F082E00E9474210E9417
:10309000D32091E0D82ED92601C0D12CAC2EA294F9
:1030A0008FE0A822B12CF501E159FF4F0C946D324D
:1030B0008C2F807FCF70882311F0C295C07F1123A1
:1030C00099F0CC2309F4C8C180E28D0F883010F04C
:1030D000D11104C08C2F0E94DD2003C08C2F0E94D0
:1030E000F0200E942921B8C18D2F0E94A617CC2361
:1030F00009F42EC280E28D0F883010F0D11104C087
:103100008C2F0E94E32003C08C2F0E94F6200E9487
:1031100029211EC28C2F807FCF70803211F0C29582
:10312000C07FDD2319F0D130C9F021C0112371F027
:10313000002341F0013031F40E9410218C2B0E94B9
:10314000162106C20E9410218C2B3FC1002319F0CA
:10315000013009F4FDC10E941F2111C0112321F08B
:10316000023008F0F5C107C00111F2C108C01123F7
:1031700021F0011171C18C2F28C101117EC18C2F4A
:103180002AC18C2F86958695837090E0009719F060
:10319000019761F0DDC1112321F08D2F9C2F9370D9
:1031A00002C080E090E00E94EE14E2C1112321F001
:1031B0008D2F9C2F937002C080E090E00E94041538
:1031C000D7C11123F9F0D53F51F0D63F71F0D43F6C
:1031D000A9F480916F039091700381600BC080917E
:1031E0006F0390917003826005C080916F0390918E
:1031F000700384609093700380936F038D2F0E94FF
:1032000044241EC0D53F51F0D63F71F0D43FA9F4FD
:1032100080916F03909170038E7F0BC080916F033C
:10322000909170038D7F05C080916F039091700322
:103230008B7F9093700380936F038D2F0E94AC243B
:103240000E94312595C18C2F837009F050C0111157
:103250008BC18D2F829586958770880F880F9D2F43
:103260009F70892E912CA12CB12C082E04C0880CA3
:10327000991CAA1CBB1C0A94D2F7D4FF14C00FE0FF
:1032800010E020E030E0B901A80104C0440F551F50
:10329000661F771F8A95D2F7CB01BA0160957095AA
:1032A0008095909503C060E070E0CB01C695C6950F
:1032B000C370D0E0C230D10561F0C330D10581F0D8
:1032C000682979298A299B29219771F00E94121F68
:1032D0004BC1682979298A299B290E94241F44C14E
:1032E0000E94121FC501B4010E94001F3DC111239D
:1032F00019F08C2F817001C08695882309F434C1A0
:103300008D2F829586958770880F880F9D2F9F70CF
:10331000892E912CA12CB12C082E04C0880C991C4C
:10332000AA1CBB1C0A94D2F7D4FF14C00FE010E013
:1033300020E030E0B901A80104C0440F551F661F0A
:10334000771F8A95D2F7CB01BA0160957095809569
:10335000909503C060E070E0CB01C695C695C37040
:103360004C2F50E04230510569F04330510589F04F
:10337000682979298A299B294130510571F00E94D9
:10338000D81FF2C0682979298A299B290E94EA1F3F
:10339000EBC00E94D81FC501B4010E94C61FE4C043
:1033A0008D2F90E0FC01E05EF109E531F10508F0B8
:1033B0004FC0E158FF4F0C946D32DF708C2F8F712E
:1033C000112331F00E945F1F8D2F0E941618C0C07C
:1033D0000E94801F8D2F0E941D18BAC0112339F042
:1033E0000111B6C08C2F8F710E94A51FB1C0023091
:1033F00008F0AEC0F7CF112339F08C2F8F710E94E7
:103400005F1FA6C01123C9F38C2F8F710E94801FEC
:103410009FC0112329F08C2F8F710E944A1F98C0E2
:103420000E94451F95C0112349F0CF718C2F0E9437
:103430005F1F63E08C2F0E945F218AC081E00E94A1
:103440007421023008F484C082E00E94742180C09C
:10345000112331F0002389F28D2F0E946D1678C060
:10346000002391F2D93349F45FEF67EE73E05150D6
:1034700060407040E1F700C000008D2F0E94A61749
:1034800067C04C2F4F706D2FC7010E945C090E94CE
:10349000711E6EC0D23FB1F028F4D03F49F0D13F49
:1034A000F9F028C0D43FB9F058F0D53F71F022C0F0
:1034B000112309F447C090915B0281E0892708C07D
:1034C00081E0182710935B023DC011113BC081E0E1
:1034D00080935B0237C0111135C010925B0232C07D
:1034E000112329F080915A02882329F329C000234F
:1034F00011F328C080915A020023C1F0882341F0C3
:1035000090915B0281E0892780935B0210925A02BE
:103510008D2F112319F00E946D1614C00E94A6175A
:1035200086E0F70111928A95E9F70CC0882351F0E3
:10353000111108C090915B0281E0892780935B02A2
:1035400010925A024C2F4F706D2FC7010E945F09D5
:10355000F8E0AF16B10441F05CF04AE0A41AB108FB
:1035600052E0A516B10420F40E94BA140E94C906C4
:10357000DD20E1F00E94CF2080FD18C0F70112820B
:103580000E94C9200E945F1FC7010E94E21A0E9488
:10359000C920DF91CF911F910F91FF90EF90DF90A5
:1035A000BF90AF909F908F900C94801FDF91CF9130
:1035B0001F910F91FF90EF90DF90BF90AF909F9081
:1035C0008F9008950F931F93CF93DF93EC01888121
:1035D00099812B813C81232BB9F09F3F11F48F3FC0
:1035E00099F0CE010E94DB06882371F06881798111
:1035F0008A810E94A6208C010E94FC1F0E94FD1E51
:10360000B801CE010E942418DF91CF911F910F9134
:1036100008950E94FD200E940D210E9429210E94F0
:10362000CA250E94312580E090E00E94EE1480E0DF
:1036300090E00C94041580911601909117010E945E
:1036400084220C94091B0E94ED200C941B1BE92F73
:10365000E295EF70F0E03297EE30F105B0F4EC5601
:10366000FF4F0C946D32803F91F018F4803E68F467
:103670000EC0843F51F40BC0803E48F0813F29F4D6
:1036800006C093FB882780F9089580E0089581E0C3
:1036900008950E949B200E94271B0895CF93DF93DB
:1036A00000D000D01F92CDB7DEB70F900F900F90D3
:1036B0000F900F90DF91CF910895CF93DF9300D0BB
:1036C00000D000D0CDB7DEB726960FB6F894DEBF97
:1036D0000FBECDBFDF91CF9108951F93CF93DF939E
:1036E000C0915C0216E080915D02C81799F0D0E0AD
:1036F0001C9FF0011D9FF00D1124E25AFD4F4081E7
:10370000518162817381848195810E945D1B219624
:10371000C770E9CFDF91CF911F91089540918E023C
:1037200050918F026091900270919102809192026B
:10373000909193020C945D1B8091930282958F70FF
:1037400009F054C080919002882309F44FC0809101
:103750005C02A0915D0260918E0270918F02409197
:10376000910250919202B6E08A1709F43FC090E0AE
:1037700041155105C1F17F3F11F46F3FA1F1B89F91
:10378000F001B99FF00D1124E25AFD4F218172130F
:103790002AC02081621327C02281211124C02381E5
:1037A00034812417350710F421503109241B350BBF
:1037B000283C3105C0F4209193022F7020612093A2
:1037C000930226E0289FF001299FF00D1124ED5966
:1037D000FD4F80818F70806180838EE892E00E942F
:1037E000E21A0C946D1B01968770BECF0895CF929C
:1037F000DF92EF92FF920F931F93CF93DF93CDB79A
:10380000DEB762970FB6F894DEBF0FBECDBF8C0156
:1038100085E0F801DE011D9601900D928A95E1F791
:10382000D8014C9111965C91119712966C91129758
:103830001396CD90DC90149730918E0270918F0288
:103840008091910290919202009709F46BC17F3FA1
:1038500019F43F3F09F466C1E0909002EE2009F4AC
:10386000C0C020919302C816D90628F0F601E81BC3
:10387000F90BCF0104C0809590958C0D9D1DFF2400
:10388000F394883C910578F0F12C207F09F0C6C0B4
:103890007C2DD98AC88A89890E944E1B8EE892E0C5
:1038A0000E94E21AB1C0822F807F09F046C07513D2
:1038B00014C0341312C0611110C02F702061209306
:1038C00093020E948E1B8EE892E00E94E21A809181
:1038D0009302D80115968C932EC0CD2819F15F3F25
:1038E00011F44F3FF9F0F62E61111CC080915C027B
:1038F00020915D0236E0821709F45AC090E0389FAB
:10390000F001399FF00D1124E25AFD4F71815713D8
:1039100006C07081471303C07281711103C0019604
:103920008770E9CFF62E662309F427C180919302B0
:10393000816080939302F12C20C1751308C0341369
:1039400006C0611104C080919302D801C3C04D87A5
:103950005E878D859E856A8B0E94491B6A898823B4
:10396000E1F16623D1F120919302822F82958F702D
:1039700090E0029774F080918E0290918F02988768
:103980008F831986DB86CA862C87CE0107960E9414
:10399000E21A86E0F801AEE8B2E001900D928A9555
:1039A000E1F70E949C1B0E948E1BFF24F394E5C04C
:1039B0004D875E878D859E850E949B20292F2295AD
:1039C0002F7030E0223031050CF0CBC09F7009F031
:1039D000C5C0805E883008F4D0C0C8010E94E21AD9
:1039E000E4CFC816D90608F453C0F601E81BF90B5A
:1039F000CF01883C910508F450C0F12C7C2DD98A68
:103A0000C88A89890E944E1BEEE8F2E086E0DF0159
:103A10001D928A95E9F70E948E1BAFC0751314C0E2
:103A2000341312C0611110C080919302F801858394
:103A3000C8010E94E21A86E0EEE8F2E0DF011D9282
:103A40008A95E9F7FE2C99C04D875E878D859E8506
:103A50006A8B0E94491B6A89882309F4BECF6623BA
:103A600009F4BBCF20919302822F82958F7090E052
:103A700002970CF48ECF80918E0290918F029A83E0
:103A800089831B82DD82CC822E83CE0101967FCF7B
:103A9000809590958C0D9D1DACCFF62E662309F474
:103AA0009CCF75132EC034132CC02091930220FD9F
:103AB0001FC0822F82958F70D9F0D80115962C9354
:103AC00015978F3049F08F5F982F9295907F822FB6
:103AD0008F70892B15968C93C8010E94E21A86E09C
:103AE000F801AEE8B2E001900D928A95E1F793CF2C
:103AF00086E0F801AEE8B2E001900D928A95E1F718
:103B00003CC04D875E878D859E850E94491B811133
:103B100040CF80919302816080939302C8010E94FC
:103B2000E21A2BC0662309F458CF4D875E878D8536
:103B30009E850E94491BF82E882309F44ECF86E00B
:103B4000F801AEE8B2E001900D928A95E1F78EE8B7
:103B500092E00E945B160E949C1B5DCF811139CFC1
:103B60000CC0243031050CF038CF9F7009F431CFF0
:103B7000F8019581907F09F02CCF8F2D62960FB6BA
:103B8000F894DEBF0FBECDBFDF91CF911F910F9193
:103B9000FF90EF90DF90CF9008951F93CF93DF9326
:103BA000CDB7DEB72C970FB6F894DEBF0FBECDBFF2
:103BB0004F83588769877A878B879C87CE010796C2
:103BC0000E94F71B882369F08F8198852A853B85A1
:103BD000232BF1F19F3F09F063C08F3F09F060C0D4
:103BE00037C086E0FE013796DE01119601900D92F6
:103BF0008A95E1F76F817885EA85FB85309741F1F9
:103C00007F3F11F46F3F21F120915D0230E0C90147
:103C100001968770992740915C0250E084179507C0
:103C200009F447C069837A83FD83EC8396E0929F11
:103C3000D001939FB00D1124A25ABD4FFE013196C1
:103C400001900D929A95E1F780935D020E946D1BA1
:103C500016E080915C0290915D028917C1F1189F76
:103C6000C0011124825A9D4F0E94F71B882379F1CD
:103C7000E0915C021E9FF0011124E25AFD4F408149
:103C8000518162817381848195810E945D1B809145
:103C90005C0290E001968770992780935C02D9CFEF
:103CA0004F81588569857A858B859C850E945D1B2F
:103CB000CFCF0E94231B10925D0210925C02EEE8AF
:103CC000F2E086E0DF011D928A95E9F7C1CF2C96DC
:103CD0000FB6F894DEBF0FBECDBFDF91CF911F911D
:103CE0000895EF92FF920F931F93CF93DF938C0170
:103CF000892B09F46CC0F12CEE24E394E8012196A1
:103D0000F8018491843740F4843008F051C0813048
:103D100081F0823019F15BC0853709F444C0A8F105
:103D20009CE7980F903708F052C08F770E94A61733
:103D300041C00E5F1F4FFE01C49180E28C0F88309E
:103D400048F4C7708E2D01C0880FCA95EAF70E940B
:103D5000002114C08C2F0E946D162DC00E5F1F4FC6
:103D6000FE01C49180E28C0F883058F4C7708E2D0C
:103D700001C0880FCA95EAF70E9406210E942921F6
:103D80001AC08C2F0E94A61716C00E5F1F4FFE018F
:103D9000C491CC2381F08FE99FE00197F1F700C037
:103DA0000000C150F6CF0E5F1F4FFE01F49003C01C
:103DB0000E946D168E018F2D882309F49FCFEFE9A5
:103DC000FFE03197F1F700C000008150F5CFDF919F
:103DD000CF911F910F91FF90EF90089508950C944B
:103DE000EE1E0E94EF1E6093CF027093D00280936C
:103DF000D1029093D2020C94091B08950C94F11EE9
:103E00000F931F930091CF021091D0022091D10205
:103E10003091D202602B712B822B932B1F910F912B
:103E20000C94F11E0F931F930091CF021091D002BA
:103E30002091D1023091D2026023712382239323F7
:103E40001F910F910C94F11E0F931F930091CF02BD
:103E50001091D0022091D1023091D20260277127B7
:103E6000822793271F910F910C94F11E08950C94B3
:103E7000361F0E94371F6093CB027093CC02809351
:103E8000CD029093CE020C94091B60E070E0CB0150
:103E90000C94391F0F931F9341E050E060E070E0F5
:103EA0008A019B0104C0000F111F221F331F8A9536
:103EB000D2F7C901B8011F910F910C94391F0F93CC
:103EC0001F9341E050E060E070E004C0440F551FD4
:103ED000661F771F8A95D2F78091CB029091CC0212
:103EE000A091CD02B091CE028A019B01082B192B23
:103EF0002A2B3B2BC901B8011F910F910C94391F3C
:103F00000F931F9341E050E060E070E004C0440F65
:103F1000551F661F771F8A95D2F74095509560957B
:103F200070958091CB029091CC02A091CD02B0917E
:103F3000CE028A019B01082319232A233B23C901AE
:103F4000B8011F910F910C94391F0F931F9341E0FB
:103F500050E060E070E004C0440F551F661F771FFB
:103F60008A95D2F78091CB029091CC02A091CD029C
:103F7000B091CE028A019B01082719272A273B27E7
:103F8000C901B8011F910F910C94391F0F931F9312
:103F90000091CB021091CC022091CD023091CE0243
:103FA000602B712B822B932B1F910F910C94391F37
:103FB0000F931F930091CB021091CC022091CD0260
:103FC0003091CE0260237123822393231F910F919E
:103FD0000C94391F0F931F930091CB021091CC02C8
:103FE0002091CD023091CE0260277127822793273E
:103FF0001F910F910C94391F0895292F220F920FB2
:10400000990F890FA82FA695A695A695877051E0C0
:1040100001C0550F8A95EAF785E0A89FD0011124C9
:1040200020E030E070E0F901EA0FFB1FEC56FD4F95
:104030004081CB01022E02C0969587950A94E2F743
:1040400081709927819584278523842780832F5F1A
:104050003F4F2530310539F70895292F220F920F50
:10406000990F890F682F669566956695982F9770BA
:1040700085E0689FB001112440E050E080E0FA0143
:10408000E60FF71FEC56FD4F208130E0092E02C0ED
:10409000369527950A94E2F721703327042E01C044
:1040A000220F0A94EAF7822B4F5F5F4F453051058C
:1040B00031F70895BF92CF92DF92EF92FF920F9364
:1040C0001F93CF93DF938C01C090CF02D090D0028A
:1040D000E090D102F090D2028091CB029091CC027C
:1040E000A091CD02B091CE02C82AD92AEA2AFB2A91
:1040F000CFE1D0E0D701C6010C2E04C0B695A7953C
:10410000979587950A94D2F780FF07C0BC2EB80117
:104110008C2F0E947A09019719F4219758F7B12C36
:104120008B2DDF91CF911F910F91FF90EF90DF903A
:10413000CF90BF900895CF93DF93EC010E945A2057
:10414000BE010E947A09DF91CF9108951F93CF930A
:10415000DF93EB0190915902992321F0CB010E944A
:104160009B2013C0882349F0CB010E945A20182FAE
:10417000682FCE010E94FD1F04C0CB010E942D209C
:10418000182FBE01812F0E947A09DF91CF911F91D4
:1041900008958091D30285958595859508958091A0
:1041A000D302877008959091D302977081E009F44B
:1041B00080E008958091F70208959091F702892B8D
:1041C0008093F702089580959091F7028923809358
:1041D000F70208958093F70208951092F702089568
:1041E0009091F602892B8093F60208958095909124
:1041F000F60289238093F60208951092F60208953C
:104200009091F502892B8093F50208958095909105
:10421000F50289238093F50208951092F50208951E
:104220008091D402089508950C9413219091D402A2
:10423000981721F08093D4020C9414210895809152
:10424000D402882329F01092D40280E00C94142127
:104250000895E0911601F09117018091F702808393
:10426000E0911601F091170190818091F602892B5F
:104270008083E0911601F091170190818091F50201
:10428000892B80838091D402882381F0E0911601EC
:10429000F09117019081892B808380911601909174
:1042A00017010E94092281110E941F21809116018D
:1042B000909117010C94C61408950C945C2198E019
:1042C000899F90011124262B2093D3020E945F1F07
:1042D0008091D3028595859585950C945D211092EA
:1042E000D30280E00C945D212091D302809582233B
:1042F0008093D302982F977079F430E0482F082EDE
:10430000000C550B2417350739F085958595859553
:104310000E94801F0C946F21089580E090E00E941D
:10432000BB3321E08D3E9E4F09F020E0822F08959F
:1043300082E090E00C94AD3383E090E00C94AD33D8
:1043400084E090E00C94AD33682F84E090E00C940E
:10435000C133AB01BC018FE090E00C94D333AB01CF
:10436000BC0183E190E00C94D33360E070E0CB01BA
:104370000C94AF2160E070E0CB010E94A9210C9465
:10438000B5216DEE7EEF80E090E00E94DF3360E0CB
:1043900082E090E00E94C13360E083E090E00E9400
:1043A000C1331092CF021092D0021092D10210921B
:1043B000D20260E084E090E00E94C13360E085E0DA
:1043C00090E00E94C13360E086E090E00E94C1333B
:1043D0006FEF87E090E00E94C13340E050E0BA0107
:1043E00088E090E00E94D33360E08DE090E00E948E
:1043F000C13340E050E0BA0188E190E00E94D3333D
:1044000060E087E190E00E94C1330C94BA210C94E3
:10441000C121FC01329680912701882331F08091DF
:10442000750387FF02C09EE101C096E080E09150D5
:1044300028F021912223D9F38F5FF9CF08959C01B1
:10444000FC0132969FEF80E04191461789F09F3F33
:1044500019F4411101C0982F8F5F8630A9F79F3F53
:1044600039F0F901E90FF11D97FDFA95628308957E
:104470000895FC01329608962081261301C010820F
:104480003196E817F907C1F70895262F2695269546
:1044900026952E3168F4FC01E20FF11D677021E0D2
:1044A00030E001C0220F6A95EAF78281282B22832F
:1044B0000895262F2695269526952E3170F4FC0119
:1044C000E20FF11D677021E030E001C0220F6A9514
:1044D000EAF72095828128232283089520912701DD
:1044E000222329F02091750327FD0C9445220C947A
:1044F0001F2220912701222329F02091750327FDF7
:104500000C9459220C94392220912701FC013296F7
:10451000222331F08091750387FF02C08EE101C034
:1045200086E0DF011D928A95E9F7089508950C94BD
:1045300096220E94972280917B03843049F1109249
:10454000F90220E488E190E00FB6F894A8958093F2
:1045500060000FBE2093600080E00E94C9060E94A8
:10456000972283B7817F846083BF83B7816083BFD5
:104570007894889583B78E7F83BF0FB6F894A895FB
:1045800080916000886180936000109260000FBE8F
:1045900008950895CF930E9452040E9465040E94DA
:1045A000C922C0E08C2F0E94CC04811104C0CF5FCF
:1045B000CE30C1F701C081E0CF91089508950C94E9
:1045C000DE220E94231B0E94BA140E94C9060C948A
:1045D000DF221F920F920FB60F9211248F939F9399
:1045E000AF93BF938091F902811113C08091710341
:1045F00090917203A0917303B09174034196A11D31
:10460000B11D8093710390937203A0937303B093D1
:104610007403BF91AF919F918F910F900FBE0F9038
:104620001F90189582E084BD93E095BD9AEF97BDE9
:1046300080936E0008952FB7F89480917103909144
:104640007203A0917303B09174032FBF0895CF92AA
:10465000DF92EF92FF920F931F932FB7F894409140
:1046600071035091720360917303709174032FBFB3
:104670006A017B01EE24FF248C0120E030E0C016AB
:10468000D106E206F30610F4415051099A01281BA5
:10469000390BC9011F910F91FF90EF90DF90CF90E0
:1046A000089578941F920F920FB60F9211248F9352
:1046B0009F93AF93BF938091710390917203A091E8
:1046C0007303B09174030196A11DB11D8093710312
:1046D00090937203A0937303B0937403BF91AF914F
:1046E0009F918F910F900FBE0F901F901895F89487
:1046F00081E08093E00080E28093D800E9ECF0E074
:1047000010828FE19EE40197F1F700C000001DBA0E
:10471000109268001CBC10BE1FBA10927A00109252
:104720006E0010926F001092710010927200108251
:10473000ECEBF0E0108214B817B81AB81DB810BA34
:10474000108215B818B81BB81EB811BA0C94003FE7
:1047500008950E948D21811102C00E9407220E94AB
:1047600098218093F8020E94A02190E09093760314
:10477000809375030E949C21682F70E080E090E098
:104780000C94FE1E8091FE0280FF0BC060911B0105
:1047900085E0689FB00111247595679575956795BB
:1047A0002BC081FF09C060911B0185E0689FB001AB
:1047B00011247595679520C082FF07C060911B0189
:1047C00085E0689FB001112417C09091FD029923E4
:1047D000D1F060911A01961788F720911B0185E0AE
:1047E000289F90011124929FA001939F500D1124A6
:1047F00070E0CA010E9459326038710540F46115B9
:10480000710539F002C065E070E0862F08958FE7EA
:10481000089581E008958091FE0280FF08C06091B4
:10482000190170E0759567957595679521C081FFB1
:1048300006C06091190170E07595679519C082FFF7
:1048400004C06091190170E010C09091FD0299239D
:10485000C1F0609118019617A0F780911901899F06
:10486000C001112470E00E9459326038710528F4AB
:104870006115710521F0862F08958FE7089581E075
:10488000089561E070E0F4CF803F21F40E94C223DC
:10489000819504C0813F29F40E94C22380930203C2
:1048A0000895823F21F40E94C223819504C0833F72
:1048B00029F40E94C223809301030895893F19F4CB
:1048C0000E940B2405C08A3F31F40E940B2481957D
:1048D0008093030308958B3F21F40E940B2481955C
:1048E00004C08C3F29F40E940B2480930403089594
:1048F000843F21F480910003816017C0853F21F43B
:1049000080910003826011C0863F21F480910003F2
:1049100084600BC0873F21F480910003886005C04C
:10492000883F31F4809100038061809300030895F3
:104930008D3F21F48091FE0281600BC08E3F21F4F7
:104940008091FE02826005C08F3F29F48091FE02B3
:1049500084608093FE020895803F39F480910203C1
:1049600087FF6CC01092020369C0813F29F48091D7
:1049700002031816BCF362C090910103823F29F430
:1049800097FF5CC01092010359C0833F19F41916B8
:10499000CCF354C0893F41F48091030318160CF006
:1049A0004DC0109203034AC08A3F29F4809103034B
:1049B00087FF44C0F6CF8B3F39F48091040387FF13
:1049C0003DC0109204033AC08C3F29F48091040347
:1049D0001816BCF333C0843F21F4809100038E7F0E
:1049E00017C0853F21F4809100038D7F11C0863F61
:1049F00021F4809100038B7F0BC0873F21F48091CD
:104A00000003877F05C0883F31F4809100038F7ECB
:104A10008093000313C08D3F21F48091FE028E7FAE
:104A20000BC08E3F21F48091FE028D7F05C08F3F29
:104A300029F48091FE028B7F8093FE028091010316
:104A400081110EC08091020381110AC0809103037D
:104A5000811106C080910403811102C01092FD02F1
:104A600008958FEF92E00E94E0140E941B23909320
:104A7000FC028093FB0208951F93CF93DF938091F4
:104A8000FB029091FC020E942723AC019091FD0251
:104A9000992321F020911C0130E006C02091FA02F8
:104AA0008AE0289F900111244217530708F46EC032
:104AB00080910103C0910203D0910303109104037C
:104AC000811107C0C1115EC0D1115CC011115AC063
:104AD0005DC09F3F19F09F5F9093FD02181624F46C
:104AE0000E94C223809301038091010387FF05C0C8
:104AF0000E94C2238195809301031C1624F40E9416
:104B0000C223809302038091020387FF05C00E94A5
:104B1000C22381958093020340910103442379F0DD
:104B200030910203332359F025EB4203A0011124F5
:104B3000509301033203C0011124909302031D1608
:104B400024F40E940B24809303038091030387FFC6
:104B500005C00E940B24819580930303111624F451
:104B60000E940B24809304038091040387FF05C0F7
:104B70000E940B24819580930403DF91CF911F91B4
:104B80000C9431259F3F09F0A6CFAECFDF91CF9196
:104B90001F910895EFEFF2E086E0DF011D928A9504
:104BA000E9F71092FD021092FE020895833081F120
:104BB00028F4813059F08230D1F00895853009F41D
:104BC00049C0B8F1863009F456C008958091FA02C0
:104BD000262F30E0280F311D2F3F310524F4680FB8
:104BE0006093FA0208958FEF8093FA0208958091FE
:104BF0001C01262F30E0280F311D2F3F310524F4F2
:104C0000680F60931C0108958FEF80931C01089535
:104C100080911B01262F30E0280F311D2F3F3105D9
:104C200024F4680F60931B0108958FEF80931B019C
:104C3000089580911A01262F30E0280F311D2F3F53
:104C4000310524F4680F60931A0108958FEF809363
:104C50001A01089580911901262F30E0280F311D87
:104C60002F3F310524F4680F6093190108958FEFE9
:104C700080931901089580911801262F30E0280FA4
:104C8000311D2F3F310524F4680F609318010895FA
:104C90008FEF809318010895833011F128F481304B
:104CA00049F0823091F00895853081F120F186300D
:104CB000C1F108958091FA02681720F4861B809351
:104CC000FA0208951092FA02089580911C01681763
:104CD00020F4861B80931C01089510921C010895F6
:104CE00080911B01681720F4861B80931B01089597
:104CF00010921B01089580911A01681720F4861BF9
:104D000080931A01089510921A0108958091190153
:104D1000681720F4861B80931901089510921901D9
:104D2000089580911801681720F4861B809318015C
:104D300008951092180108950F931F93482F50E083
:104D4000FA013597EF33F10508F07FC0EE55FF4FBC
:104D50000C946D320E94072271C08091F802817F0D
:104D60008E7F8093F80281E0809306036FC00E94DB
:104D7000231B0FEF13ED20E3015010402040E1F71B
:104D800000C000000E94772359C08091F802982F3C
:104D90009095917090FB80F98093F80291114EC02C
:104DA000897F877F10C08091F80281FB222720F93C
:104DB00091E0922790FB81F98093F8029923F1F119
:104DC0008091F80281608093F80238C08091F802E7
:104DD00082FB222720F991E0922790FB82F9ECCF09
:104DE0008091F80283FB222720F991E0922790FB23
:104DF00083F9E2CF0E94231B8091750387FB222752
:104E000020F991E0922790FB87F98093750316C0F3
:104E1000895301C08D5141E050E060E070E08A01AB
:104E20009B0104C0000F111F221F331F8A95D2F768
:104E3000C901B8010E94FE1E0E94231B81E006C02A
:104E400061E070E080E090E0F5CF80E01F910F918D
:104E5000089580E0089580E008958E518A3030F4FE
:104E6000E82FF0E0EB50FE4F8081089580E0089538
:104E7000CF93C82F80910603813071F018F08230F3
:104E8000E1F184C00E94DA20813151F00E94DA20E1
:104E9000823209F07DC004C00E94DA20813149F4D9
:104EA0008C2F0E942927811109C08C2F0E949C26DB
:104EB00022C00E94DA20823221F4F2CF81E090E019
:104EC0001AC08C2F0E942B27811114C0C43179F095
:104ED00048F4CB3079F0C03109F05EC082E08093B5
:104EE000060308C0C93219F0C83321F055C010922A
:104EF000060352C081E0817051C0C93279F108F5D2
:104F0000C43161F1A0F4C73009F044C01092FA0234
:104F100084E180931C01C0931B018CE380931A01F0
:104F200088E08093190188E28093180133C082EEF3
:104F30008C0F863078F58C2F0E942D2780930503E7
:104F400029C0CE34E9F020F4CB3421F56AE013C057
:104F5000C13579F0C235F1F461E00DC080910503EF
:104F6000882319F01092050315C081E08093060391
:104F700015C061E006C0809105030E94D6250AC0D5
:104F80006AE0809105030E944C2604C0109206033B
:104F900080E004C081E002C080E0ADCFCF910895F1
:104FA0008091270308950F931F93CF93DF9300D031
:104FB0001F92CDB7DEB78C010E94432A823011F0D8
:104FC000843021F584E089831B830A8382E0809307
:104FD000E9008FEF9091E800815095FD06C095EDB6
:104FE0009A95F1F700008111F5CF8091E80085FFD7
:104FF0000DC040E050E063E070E0CE0101960E94F9
:10500000602A8091E8008E778093E8000F900F90DF
:105010000F90DF91CF911F910F910895CF93DF9360
:1050200000D01F92CDB7DEB720917B03243031F53D
:1050300023E02983805891099B838A8382E08093AF
:10504000E9008FEF9091E800815095FD06C095ED45
:105050009A95F1F700008111F5CF8091E80085FF66
:105060000DC040E050E063E070E0CE0101960E9488
:10507000602A8091E8008E778093E8000F900F906F
:105080000F90DF91CF910895CF93DF93EC010E94B1
:10509000432A823011F08430F9F482E08093E900F1
:1050A0009FEF8091E800915085FD06C085ED8A95BF
:1050B000F1F700009111F5CF8091E80085FF0CC059
:1050C00040E050E066E070E0CE010E94602A8091EE
:1050D000E8008E778093E800DF91CF910895CF9319
:1050E000DF93EC010E94432A823011F08430D9F51D
:1050F00080912701882339F08091750387FF03C0D1
:1051000060E282E002C068E081E08093E9008FEF16
:105110009091E800815095FD06C095ED9A95F1F7C4
:1051200000008111F5CF8091E80085FF1CC08091BF
:105130002701811105C040E050E068E070E003C045
:1051400070E040E050E0CE010E94602A8091E800CB
:105150008E778093E80080E2FE01A7E0B3E0019043
:105160000D928A95E1F7DF91CF91089580917A03AE
:10517000811109C00E94F52B0E94522C8091E200FF
:1051800084608093E200089510927A030895089550
:1051900008950C94E12242E061EC81E00E946F2BC3
:1051A00042E261EC82E00C946F2B80917D038330AE
:1051B00009F460C030F4813071F0823009F499C094
:1051C00008958A3009F485C08B3009F46BC08930AA
:1051D00009F0A7C020C080917C03813A09F0A1C0EA
:1051E0008091E800877F8093E80080918003909110
:1051F0008103892B21F460E287E093E003C060E043
:1052000080E090E070E00E94AB2A8091E8008B770C
:105210008093E800089580917C03813209F081C079
:105220008091800390918103029708F07AC0809169
:10523000E800877F8093E8008091E80082FD05C048
:1052400080917B038111F8CF6CC02091F300809195
:10525000F20090E0922B029729F48091F1008B7F6D
:10526000813021F48091F100809327038091E80040
:105270008B7753C080917C03813A09F052C08091B2
:10528000800390918103892B09F04BC08091E80045
:10529000877F8093E8008091E80080FFFCCF8091B9
:1052A000270136C080917C038132D9F5809180033B
:1052B00090918103892BA9F58091E800877F8093E5
:1052C000E8000E94A42B80917E03809327010C9418
:1052D000231B80917C03813221F58091E800877F38
:1052E0008093E8000E94A42B80917F038093280381
:1052F000089580917C03813AA1F48091E800877F32
:105300008093E8008091E80080FFFCCF8091280323
:105310008093F1008091E8008E778093E8000C94F0
:10532000A42B089584B7877F84BF0FB6F894A895FF
:1053300080916000886180936000109260000FBED1
:1053400080E880936100109261000E9428150E94FD
:10535000F52B0E94522C8091E20084608093E20041
:1053600078940E94E12E0E9430158DE191E00E9418
:10537000B51480917B03853069F40E949922809155
:1053800079038823B1F30E94CA22882391F30E94F3
:105390004A2AEFCF0E943A150E945413EACF0C9488
:1053A000D129292F332723303105C9F064F4213066
:1053B000310581F02230310509F04CC08BE390E0DB
:1053C0002AE635E04BC02132310521F12232310588
:1053D00089F140C082E190E025EA35E03FC099279D
:1053E0008130910571F02CF4892BA1F5E6E6F5E00A
:1053F0000DC08230910541F0039761F5E0E3F5E0DF
:1054000005C0EEE4F5E002C0E6E3F5E0849190E04B
:105410009F0124C06115710541F061307105D1F41F
:1054200089E090E025E935E019C089E090E02CE7BB
:1054300035E014C06115710541F06130710551F41A
:1054400080EC90E027EB35E009C080E490E027E7AE
:1054500036E004C080E090E020E030E0FA013183E3
:10546000208308950895CF93C82F0E94322AC093B5
:105470002903CF91089580917B03843011F081E05E
:10548000089582E0089580912903811102C00C944F
:105490003B2A089580E189BD82E189BD09B400FEFF
:1054A000FDCF8091D8008F7D8093D8008091E0005F
:1054B00082608093E0008091E00081FDFCCF089540
:1054C000CF92DF92EF92FF920F931F93CF93DF93D0
:1054D000EC018B016A010E94C32B811133C0C114FE
:1054E000D10439F0F60180819181081B190BC80F96
:1054F000D91FE12CF12C0115110519F18091E8005B
:1055000085FD16C08091E8008E778093E800C11475
:10551000D10449F0F60180819181E80EF91EF182F3
:10552000E08285E00FC00E94C32B882321F30AC0CC
:1055300089918093F10001501109FFEFEF1AFF0AE2
:10554000DACF80E0DF91CF911F910F91FF90EF9024
:10555000DF90CF9008952091820330918303261726
:10556000370748F06115710539F42091E8002E776E
:105570002093E80001C0B90140E061157105A9F16F
:1055800020917B03222309F443C0253009F442C053
:105590002091E80023FD40C02091E80022FD32C0A8
:1055A0002091E80020FFE9CF4091F3002091F20024
:1055B00030E0342BFC01CF016115710559F0283022
:1055C000310540F481918093F100615071092F5FA2
:1055D0003F4FF1CF41E02830310509F040E0209104
:1055E000E8002E772093E800C8CF4111C9CF0AC048
:1055F00080917B03882361F0853061F08091E80021
:1056000083FD0AC08091E80082FFF2CF80E0089518
:1056100082E0089583E0089581E008952091820357
:10562000309183032617370748F06115710539F467
:105630002091E8002E772093E80001C0B901FC0119
:1056400020E06115710591F180917B03882309F4B5
:1056500040C0853009F43FC08091E80083FD3DC023
:105660008091E80082FD2FC08091E80080FFE9CFA3
:105670002091F3008091F20090E0922B611571056A
:1056800059F08830910540F424912093F10031962F
:10569000615071090196F2CF21E0089709F020E0EE
:1056A0008091E8008E778093E800CBCF2111CCCF9A
:1056B0000AC080917B03882361F0853061F080917E
:1056C000E80083FD0AC08091E80082FFF2CF80E00D
:1056D000089582E0089583E0089581E00895982F69
:1056E000973058F59093E900981739F07091EC00D5
:1056F0002091ED005091F00003C0242F762F50E050
:1057000021FF19C03091EB003E7F3093EB003091C8
:10571000ED003D7F3093ED003091EB003160309330
:10572000EB007093EC002093ED005093F00020917B
:10573000EE0027FF07C09F5FD3CF8F708093E900F3
:1057400081E0089580E0089580917C0387FF11C077
:105750008091E80082FD05C080917B038111F8CF24
:1057600011C08091E8008B770BC080917B03882368
:1057700049F08091E80080FFF8CF8091E8008E77B3
:105780008093E80008952091E4003091E50095E6CB
:105790004091EC00842F817040FF22C08091E8008E
:1057A00080FD1CC080917B03882391F0853091F0AF
:1057B0008091EB0085FD10C04091E4005091E50020
:1057C0004217530729F39A01915011F784E0089585
:1057D00082E0089583E0089581E0089580E00895CF
:1057E0004091E80042FFDECF08950E94632C0E94A2
:1057F0006B2CE0EEF0E0808181608083E8EDF0E0EA
:1058000080818F77808319BCA7EDB0E08C918E7F6B
:105810008C9380818F7E808310927A0308950F93FA
:105820001F93CF93DF930E94632C0E946B2CC8EDD3
:10583000D0E088818F778883888180688883888199
:105840008F7D888319BC10927B031092770310928E
:1058500079031092780300EE10E0F80180818B7FCD
:10586000808388818160888342E060E080E00E94DC
:105870006F2BE1EEF0E080818E7F8083E2EEF0E03E
:10588000808181608083808188608083F80180814D
:105890008E7F8083888180618883DF91CF911F9183
:1058A0000F910895E8EDF0E080818F7E8083E7ED31
:1058B000F0E080818160808384E082BF81E080931A
:1058C0007A030C940F2CE8EDF0E080818E7F8083CA
:1058D0001092E20008951092DA001092E10008950B
:1058E0001F920F920FB60F9211242F933F934F9355
:1058F0005F936F937F938F939F93AF93BF93EF9338
:10590000FF938091E10082FF0BC08091E20082FF53
:1059100007C08091E1008B7F8093E1000E94E02E20
:105920008091DA0080FF1FC08091D80080FF1BC0EB
:105930008091DA008E7F8093DA008091D90080FF19
:105940000DC080E189BD82E189BD09B400FEFDCFB3
:1059500081E080937B030E94B62805C019BC109299
:105960007B030E94C4288091E10080FF19C08091D0
:10597000E20080FF15C08091E2008E7F8093E200FC
:105980008091E20080618093E2008091D800806283
:105990008093D80019BC85E080937B030E94C828BF
:1059A0008091E10084FF30C08091E20084FF2CC030
:1059B00080E189BD82E189BD09B400FEFDCF8091FF
:1059C000D8008F7D8093D8008091E1008F7E8093F6
:1059D000E1008091E2008F7E8093E2008091E200FE
:1059E00081608093E20080917703882311F084E046
:1059F00007C08091E30087FD02C081E001C083E021
:105A000080937B030E94C9288091E10083FF29C015
:105A10008091E20083FF25C08091E100877F809321
:105A2000E10082E080937B03109277038091E10094
:105A30008E7F8093E1008091E2008E7F8093E20070
:105A40008091E20080618093E20042E060E080E0CB
:105A50000E946F2B8091F00088608093F0000E947C
:105A6000C728FF91EF91BF91AF919F918F917F9147
:105A70006F915F914F913F912F910F900FBE0F90BB
:105A80001F9018951F920F920FB60F9211242F930B
:105A90003F934F935F936F937F938F939F93AF93B6
:105AA000BF93CF93DF93EF93FF93C091E900CF7043
:105AB0008091EC00D82FD17080FDD0E81092E900E1
:105AC0008091F000877F8093F00078940E94862D6B
:105AD0001092E9008091F00088608093F000CD2B57
